:020000040800F2
:10000000B1AA010000000000000000000000000094
:1000100000000000000000000000000000000000E0
:1000200000000000000000000000000000000000D0
:1000300000000000000000000000000000000000C0
:1000400000000000000000000000000000000000B0
:1000500000000000000000000000000000000000A0
:100060000000000000000000000000000000000090
:100070000000000000000000000000000000000080
:100080000000000000000000000000000000000070
:100090000000000000000000000000000000000060
:1000A0000000000000000000000000000000000050
:1000B0000000000000000000000000000000000040
:1000C0000000000000000000000000000000000030
:1000D0000000000000000000000000000000000020
:1000E0000000000000000000000000000000000010
:1000F000000000004218000800000000000000009E
:1001000000000000000000000000000000000000EF
:1001100000000000000000000000000000000000DF
:1001200000000000000000000000000000000000CF
:1001300000000000000000000000000000000000BF
:1001400000000000000000000000000000000000AF
:100150000000000000000000321800087370043036
:10016000170500001305C5FF8545F605637BB5003F
:1001700089816378B500170500001305C5002E9529
:1001800002859302002073A0027D970200009382F3
:1001900062E773907230972200009382E24E739070
:1001A000C27E73E0C07E972200009382A2457390C6
:1001B000523097110018938161B417810018130110
:1001C00061E4174500001305E58397050018938542
:1001D00065E3170600181306663363FAC500832229
:1001E000050023A0550011059105E3EAC5FE17059A
:1001F00000181305A531970500189385A55B637753
:10020000B500232005001105E36DB5FE73F0023241
:10021000173500001305255797300000E78040523E
:1002200097300000E780A05997100000E780408FCA
:100230000145814597000000E780802E17330000BC
:100240006700035101A073E00232828073F0023232
:0402500082800000A8
:100280000A50726F6772616D2068617320657869CA
:10029000746564207769746820636F64653A000050
:1002A000307800006E6D690A0000000074726170A1
:1002B0000A0000001603470069006700610044005F
:1002C00065007600690063006500000038034700A0
:1002D000440033003200200055005300420020004B
:1002E0004300440043002000410043004D00200033
:1002F00069006E0020004600530020004D006F0092
:1003000064006500000000002E0347004400330035
:1003100032005800580058002D0033002E003000E5
:100320002E0030002D0037007A00380078003900A8
:100330007900650072000000120100020200004016
:10034000E9288A010001010203010000F0390008D8
:10035000B4020008CC02000808030008861D00084B
:10036000B61F0008B01B0008361F0008B01B0008AD
:10037000D21E0008E41B00084E200008401E0008A2
:10038000DE1C00087C1E0008A81E00085220000881
:100390000100000004000000070000000E00000043
:1003A000020000000500000008000000000000003E
:1003B0000300000006000000090000000F0000001C
:1003C0000A0000000B0000000C0000000D000000FF
:1003D0007B14AE47E17A743FD7A3703D0AD7EF3F55
:1003E0007A2F00007A2F0000922F0000742F000057
:1003F000742F000020300000922F0000742F0000A6
:1004000020300000742F0000922F0000722F000097
:10041000722F0000722F0000203000000001020245
:10042000030303030404040404040404050505058C
:100430000505050505050505050505050606060668
:10044000060606060606060606060606060606064C
:100450000606060606060606060606060707070738
:10046000070707070707070707070707070707071C
:10047000070707070707070707070707070707070C
:1004800007070707070707070707070707070707FC
:1004900007070707070707070707070708080808E8
:1004A00008080808080808080808080808080808CC
:1004B00008080808080808080808080808080808BC
:1004C00008080808080808080808080808080808AC
:1004D000080808080808080808080808080808089C
:1004E000080808080808080808080808080808088C
:1004F000080808080808080808080808080808087C
:10050000080808080808080808080808080808086B
:10051000080808080808080808080808757122C5AE
:1005200037040008854713060004930504390810B2
:1005300006C73EC8CEDED2DCD6DA26C34AC1DAD838
:10054000DED602C602CA02CC02CE97300000E78097
:10055000A02D97200000E78000FE97200000E78094
:10056000E02097200000E780802497200000E780AB
:10057000802B97200000E780C03297100000E780B2
:10058000408B8D45054597000000E780E079130515
:10059000C00397000000E780006493090000130A7D
:1005A000400613040439930A803E97200000E78038
:1005B000001F65DD97200000E78060239720000082
:1005C000E7808029B24785073EC697000000E78094
:1005D000205F65DD97000000E7806057F245AA8440
:1005E000054597200000E780802AE2450945B3C50C
:1005F000450397200000E7808029D2450D45B3C50B
:10060000450397200000E78080282685973000006A
:10061000E78040E797300000E780C0F23040744048
:1006200097300000E780409B2A8B4E85AE8B973039
:100630000000E78020F13044744497300000E780E8
:10064000A0992A86AE865A85DE8597200000E7802D
:10065000003997300000E780C0F8AA899730000081
:10066000E78040DCB3445503814513894402635C51
:100670002005154597200000E7806021CA851145B7
:1006800097200000E780A02050082C0868089720D9
:100690000000E780C0DF97200000E780A023634DC3
:1006A00005000A059C103E95032505FC50086C08C2
:1006B00097200000E78080DA0C086800972000008F
:1006C000E78080D6DDB5114597200000E780201C2B
:1006D0009305C0FD858D154597200000E780201B00
:1006E00065B7B707014023AAA740828093F70501A9
:1006F00093F8F50099C3B3E8C8008147054EBD4E95
:10070000130F8002930F800421433316FE00758E71
:100710001DC213972700832205003398EE0013486B
:10072000F8FF337858003397E8003367070163997F
:10073000E50550C918C18507E39967FC054EBD4E14
:10074000130F8002930F800441433316FE00758E11
:1007500005C6139727000117832245003398EE0042
:100760001348F8FF337858003397E80033670701E0
:10077000639CE50150C958C18507E39867FC8280F6
:10078000E39AF5FB10C97DB7E397F5FF10C9E5B70C
:1007900019C20CC982804CC9828008456D8D3335E1
:1007A000A0008280B7170240135765003E9714439C
:1007B0008547B397A700D58F1CC38280B716024028
:1007C000DC42370740FF7D17F98F5D8DC8C28280FC
:1007D000B71702409843B706FFE0B106136717004A
:1007E00098C3D843758FD8C39843B706F7FEFD1654
:1007F000758F98C39843B706FCFFFD16758F98C395
:10080000D843B70601DFFD16758FD8C323A60702AC
:100810009843B706F7EAFD16758F98C33707FF00B0
:1008200098C794434167D98E94C39307F7FF37174E
:10083000024014431396E60063440600FD17F5FBDF
:10084000B717024098439316E70063C3060001A060
:10085000D843B706C4DFFD16D8C3D843D8C3D8439E
:1008600013670740D8C3D843758FD8C3D843B7069A
:100870002920558FD8C3D857BD76758FD8D7D8576C
:10088000C166938616F1558FD8D79843B7060004F2
:10089000558F98C3B7170240984393164700E3DD7E
:1008A00006FE9843B7060010558F98C3B71702404D
:1008B000984393162700E3DD06FE9843B706000130
:1008C000558F98C3B7170240984393166700E3DD2E
:1008D00006FED843719BD8C3D84313672700D8C3FB
:1008E000371702405C43A18BF5DF82803717024047
:1008F0005C4337060020854689838D8B1306864F1F
:100900006386D70081C789466388D700B7177A0006
:10091000938707201CC282805C439396F70063DBB9
:1009200006065C579396F70063D106065C57585746
:100930009183BD8B2183938617009377F7001387EC
:100940002700C5476313F7005147B7177A0093870D
:100950000720B3D7D702B387E702371702405857AB
:100960003D8B0507B3D7E702B7160240D842D44201
:100970004983939526003D8B63D3050213670701D6
:1009800005073307F70218C28280B7177A009387EA
:100990000720E1B7B7173D0093870790F1B7BD4631
:1009A000E300D7FE0907E31ED7FC19473387E702A8
:1009B0008583BA9785B77971B705000822D47D463B
:1009C0002A84938505280A8506D697300000E7809B
:1009D000A0E579468A85094597300000E78020E741
:1009E000A285094597000000E780E001B7050008EF
:1009F00005469385052B094597300000E78020E5E3
:100A000001A079714ECEAE89B705000809469385DD
:100A1000052A22D426D24AD052CC56CA06D62A89D2
:100A2000714497300000E78080E23D4AA54AF154C6
:100A3000B3178A00B3F73701B3D7870093F7F70FDF
:100A400063ECFA029387070393F7F70F05469305C4
:100A5000F1004A857114A307F10097300000E78088
:100A600000DFE31794FCB250225492540259F24929
:100A7000624AD24A4561828093877703F1B7B7070C
:100A800000D1D8438843CC43E39DE5FE8280B7077D
:100A900000D223800700A38507001205B71700D2F4
:100AA0003E9563E3A700828023A00700C107D5BF5E
:100AB000F327503093F707FC93E7370073905730D4
:100AC0008280B7050008411115469385452A0545E2
:100AD00006C697300000E78080D7054597000000E4
:100AE000E780A0ED41119347F5FF22C406C6139796
:100AF00047012A8409E797000000E780C0FCB7059A
:100B0000000815469385C52A054597300000E78003
:100B100000D4228597000000E78020EA411106C634
:100B200097000000E78000CB1305700597000000D8
:100B3000E78020F697000000E780C0F7B24041014F
:100B400017F3FFFF6700637082804111014506C6FD
:100B500022C426C297000000E780201F97000000F3
:100B6000E780002B65FDED4401440545970000003A
:100B7000E780A01D97000000E780E01F97000000BD
:100B8000E78000290604498CFD1401459700000008
:100B9000E780A01B97000000E780E01DF9F41355E3
:100BA000340013178500B7078000635407003D8D9C
:100BB0001D8DB2402244924441018280411106C6FB
:100BC00097000000E780C024B240133515004101B2
:100BD0008280011106CE22CC26CA4AC84EC6AA84FB
:100BE00097000000E780A0F6054597000000E78029
:100BF000C01597000000E780202005459700000001
:100C0000E780001697000000E780E0160145970096
:100C10000000E780801397000000E780C0150545BD
:100C200097000000E780601297000000E780A014A2
:100C3000014597000000E78040111944970000002B
:100C4000E7806013930950067D5905459700000021
:100C5000E780A00F33D58940058997000000E78021
:100C6000201097000000E780001101457D149700D7
:100C70000000E780800D97000000E780C00FE316BA
:100C800024FD054597000000E780200C9700000038
:100C9000E780600E014597000000E780000B1D44CF
:100CA00097000000E780200D7D5905459700000062
:100CB000E780A00933D58440058997000000E780CC
:100CC000200A97000000E780000B01457D14970083
:100CD0000000E780800797000000E780C009E31666
:100CE00024FD97000000E780A00F05459700000055
:100CF000E780A00597000000E780E0070145970026
:100D00000000E780800497000000E780C006F24002
:100D10006244B7070020238E974E4249D244B2491D
:100D200005618280B707002083C7C74F8A05B18954
:100D300093F737FC1205CD8F137505035D8D1703EF
:100D40000000670043E92A86371501409305000437
:100D5000130505C0170300006700C3A32A863715D3
:100D6000014093050008130505C017030000670044
:100D700063A2011122CC4EC606CE26CA4AC89700ED
:100D80000000E78000D0AA892E8497000000E78049
:100D900040CFAA842E896394A900E308B4FE3714D7
:100DA0007A00B70900201304042097000000E780B0
:100DB00040CD83A7894F330795403335E500B38590
:100DC0002541B3D787026394A500E360F7FEF240A4
:100DD0006244D2444249B2490561828037150140DC
:100DE000930600080D469145130505C01703000042
:100DF0006700039037150140930600080D46C14572
:100E0000130505C0170300006700838E37150140E6
:100E1000411193050008130505C006C697000000A0
:100E2000E780E097B2401375F50F410182804111D0
:100E30001305306006C622C497000000E780C09604
:100E40001305306097000000E780009637140140DA
:100E5000130504C0930600080D4691459700000055
:100E6000E7800089130504C02244B24093060004C1
:100E70000D46C145410117030000670063877106F5
:100E80000A062A968D06898250468A06AE96639493
:100E9000B6000145828003C7150083C70500910590
:100EA00022075D8F83C7E5FFC2075D8F83C7F5FF0C
:100EB000E207D98F1CC2E1BF0D060982785D0A06E0
:100EC0002E966394C5002E8582801C43910593D68F
:100ED0008700238EF5FEA38ED5FE93D60701E1830E
:100EE000238FD5FEA38FF5FEE9BF184141119A0566
:100EF00006C693E505020CCB1C4B93F70702EDFFEA
:100F00000D4597100000E7808092B24001454101F5
:100F100082805C45920598431377F78098C3984385
:100F2000D98D8CC38280984183870500411102C608
:100F30003D8B63D9070693172700AA97DC4B85469C
:100F4000B396E60036C694435045139506016344B4
:100F500005049443370534FC13050580E98E94C3DA
:100F600029EF144603A8070013F56600B7460008EA
:100F70009386469FAA9683C60600B3E6060194C3ED
:100F800083C6150088435A07CA06558F498FB7860E
:100F90000010558F98C332475C4E0145D98F5CCE07
:100FA00041018280930787008A07AA9713060701E9
:100FB0008546DC47B396C60071B7884383D64500A3
:100FC000C98E75BF90410111B70600E03D8A9317A5
:100FD0002600AA97D84B06CE1C433EC41C4B3EC6E7
:100FE000B247F58F3EC6DC45A5E7B247B706080015
:100FF000D58F3EC6B2471CCB8346450085476394D8
:10100000F6009C4D5CCB03C815008547631CF800B7
:101010005C459C4793F70710B5CFA247B706002061
:10102000D58F3EC4A247B7060084D58F3EC4A247E1
:10103000D4451CC385476303F80699C658453396C3
:10104000C700545B558E50DBF2400145056182803C
:1010500083D645001DE663F3F600B687DCC5B247CC
:10106000B7060800D58F3EC6B247D445D58F83C694
:1010700015003EC68547E39FF6F6B247B706006007
:1010800085BFFD17B697B3D7D7023248CE07B3E76F
:101090000701D1BFA247B706001059B78C45C20659
:1010A000C182210597000000E780A0DD71BF984153
:1010B000D4453D8B930787008A07AA9783A8C7006A
:1010C000B70700E003A6080003A808013378F8007A
:1010D00083D7450091C239E33368F800B7070800A9
:1010E000B3E7070123A8F8000347450085476315C8
:1010F000F7009C4D23AAF80003C715008547631825
:10110000F70083C735009DC7B70700205D8EB7077E
:1011100000845D8E23A0C800014582801387F6FFFE
:101120003E973357F7029316370133E80601B307AA
:10113000F7027DB7B7070010D1BF9C4103870500B8
:10114000BD8B635407028A07AA97DC4B9843635709
:1011500007009843B7060040558F98C39843B706D9
:1011600020000145558F98C38280A1078A07AA975E
:10117000DC47EDB79C4103870500BD8B635A07022E
:101180008A07AA97DC4B9843B706E0FFFD16758FD8
:1011900098C303C71500854679171377F70F63E7E0
:1011A000E6009843B7060010558F98C3014582802A
:1011B000A1078A07AA97DC47F9B75C45884FDC4F3F
:1011C0007D8D41811375F5038280A1058A05AA955D
:1011D000DC4598475C45C84B798D82805C45884FDB
:1011E000DC4F7D8D1375F50382805845144B5C5B95
:1011F000139725003A955849B3D7B7009E0708477B
:1012000093F7F70FD58F7D8D82805C553707086087
:10121000610798CB834645000547639AE6001305AE
:101220004542C8CB9843B7860080558F98C38280CB
:101230008347750091CB5C459C47858B91C70327FD
:10124000050C1C43F19B1CC382801C45D84B058BAD
:10125000631C0712411126C2C44B9C4F06C622C410
:101260004AC0FD8C638C04109397C4002A8463D613
:10127000070097000000E78080119397D40063D7A0
:101280000700228597000000E7804020856793874C
:10129000078033F7F40019C318445CCB63DC040007
:1012A0008347740C3707008093F7F70F2303F40C80
:1012B0001C44D8CB93F7240081C71C440947D8CBE2
:1012C00093F78400B1C7832704439C4F99C32285B9
:1012D000829737090020130989508347090093F743
:1012E000F70F85C7834709000947850793F7F70F6D
:1012F0002300F900834709006379F70022859710DE
:101300000000E78000EA230009001C442147D8CBF5
:1013100093F7040191C7228597000000E780C0225F
:101320009397340163D70700228597000000E78078
:10133000002E9397240163D70700228597000000B1
:10134000E780003A9397B40063DC070083270443E7
:10135000DC4F99C3228582971C4437071000D8CBF5
:101360009397A40063DC0700832704439C5399C32D
:10137000228582971C4437072000D8CBB2402244F4
:1013800092440249410182808280397122DC26DA4E
:101390004AD84ED652D456D25AD05ECE62CC06DE51
:1013A00066CA2A84370A080097000000E78020E117
:1013B0002A898144B70A0020214B8549994B614C09
:1013C0007D1A63100902F2506254D2544259B25944
:1013D000225A925A025BF24B624CD24C0545216173
:1013E000828093771900C9CF93FCF40FE68522859C
:1013F00097000000E780A0DD2AC4A247858BA1CF1B
:1014000093972400A297D85723243701834644009A
:10141000639F3601184B3AC633878403B246B3F64E
:101420004601BA9703D70727158F23AEE726E6852F
:10143000228597100000E78000E083474400639C0A
:10144000370191E88347C44263977701228597006B
:101450000000E780C0DBA247A18B9DC395E0938C81
:101460008A5083C70C0093F7F70F99CB228597100A
:101470000000E78000D35C5423800C0023A46701A4
:1014800013591900850435BF797122D426D24AD068
:101490004ECE52CC56CA06D65AC82A8497000000AF
:1014A000E78000D42A898144130A00088549954AB7
:1014B000631D0900B250225492540259F249624A03
:1014C000D24A424B05454561828093771900BDC7DA
:1014D00013FBF40FDA85228597000000E78020D106
:1014E0002AC6B247858B9DCB93972400A297DC4BED
:1014F000DA85228523A4370197100000E78000E2F7
:1015000083474400639C370191E88347C442639753
:101510005701228597000000E78060CFB24793F71C
:10152000070889CFA685228597000000E780C021A3
:1015300093972400A297DC4B23A447011359190069
:101540008504BDB71C45011102C6984F22CC26CA9E
:101550004AC83D9B06CE98CF9C5389462A893EC6F1
:101560003244B2443247B24791803D88C583BD8B37
:1015700093F4F47F6382D70299466387D7040327E5
:101580008900F24062441C4FD244424993E707016C
:101590001CCF054505618280FDD0F1473304F4027C
:1015A00026862A9483254427210597000000E7809A
:1015B000E09083274427A697232AF4268327C4276D
:1015C000BE94232E942665BFF1473304F4023D8375
:1015D0000D8B2A948347C426BD8BD98FCDF3A147A9
:1015E000E39FF4F89305454221462105970000004A
:1015F000E780C08C8327C4270547A107232EF42644
:10160000B70700202384E7509DBF5845411122C4ED
:101610005C4306C626C2F99B4AC02A845CC3814546
:10162000210597000000E780808C03463400930773
:10163000440101479306F00F636BC7085C447D5774
:10164000854498CF41670507D8CF2547D8CB84CBB1
:1016500098432285130900041377F78098C3A302E7
:10166000040C97000000E78080BA1C4405677146AF
:10167000D8CB9307C4263E85814597200000E7809C
:10168000001CAA8523182427228597000000E780E4
:10169000C0899307840C714681453E8597200000E0
:1016A000E780E019130700F82316240D2304E40C47
:1016B000AA85228597000000E7802087B240230397
:1016C000940C2244924402490545410182808C4396
:1016D0000507910794C5CC4B94C5B9BF5C4571769D
:1016E0001306F63F9847D443058393F6F6EFD4C329
:1016F000D44393E60610D4C31C45D447F18ED4C717
:1017000093763700374700081307879F36970347BC
:1017100007008D46631ED700A300E500D847896601
:1017200093860640558FD8C70967D8CB0545828078
:101730000947A300E500D847856693860640558F84
:10174000D8C7DDB7F147B387F50279714ECE06D61B
:1017500022D426D24AD052CC56CA5AC8AA9703A736
:10176000470D83A6870D83D7C70C5EC662C4158F4D
:10177000AA896373F700BA87714433848502854A66
:101780008D07B39ABA00139B2500C16B13DA2700AB
:1017900093CAFAFF4E9BFD1B4E9413F9F50F138C61
:1017A000890083274B01984F337777016378EA00EC
:1017B0000327840D8327440D636FF700B250225432
:1017C00092540259F249624AD24A424BB24B224CDD
:1017D0000545456182808354C40C998F63F397005B
:1017E000BE848325040D9396040193873400C1823F
:1017F0004A86628513DA270097F0FFFFE78060686A
:101800008327840D0327040D2697BE948327440D58
:101810002328E40C232C940CE395F4F883A7C90047
:10182000D85B33775701D8DBADBF170300006700E3
:10183000E306370500201305450417030000670081
:1018400003A1411122C43704002006C693074404B3
:1018500083C777008DCB97000000E7806016B7073D
:10186000002003A5C75097F0FFFFE78060F5130540
:10187000C05097F0FFFFE78020F313054404970062
:101880000000E780209B2244B2403705040041015C
:1018900017F3FFFF670023E5011122CC4EC652C4A7
:1018A00006CE26CA4AC8AA8997F0FFFFE780601DC6
:1018B0002A8A2E8497F0FFFFE780A01CAA842E8935
:1018C0006314AA00E308B4FE37143D00370A002071
:1018D0001304049097F0FFFFE780A01A83278A4F34
:1018E000330795403335E500B3D78702B3852541EB
:1018F000B38737036394A500E36EF7FCF2406244BC
:10190000D2444249B249224A0561828001114AC843
:101910004EC606CE22CC26CA52C456C2AE893289E1
:1019200097F0FFFFE780E0159307002063F427019D
:1019300013090020E1649384046AAA94370A002002
:1019400033B5A400D28A3304B5008347DA4F99EB4C
:1019500097F0FFFFE780E012E3E985FE6314B4002F
:10196000E36595FE37060020A38E0A4E01449307D7
:10197000C651631B24039316040137050020C1825E
:101980001306C6519305100813054504970000007F
:10199000E780E0152285F2406244D2444249B249D0
:1019A000224A924A05618280338789008346070074
:1019B0003387870005042300D70065BFB7170240AF
:1019C0009843B706FFE0B1061367170098C3D843E2
:1019D000758FD8C39843B706F7FEFD16758F98C369
:1019E0009843B706FCFFFD16758F98C3D843B7061A
:1019F00001DFFD16758FD8C323A607029843B706EB
:101A0000F7EAFD16758F98C33707FF0098C7944310
:101A10004167D98E94C39307F7FF371702401443E9
:101A20001396E60063440600FD17F5FBB717024066
:101A300098439316E70063C3060001A0D843B70696
:101A4000C4DFFD16D8C3D843D8C3D84313670740B3
:101A5000D8C3D843758FD8C3D843B7061D20558F38
:101A6000D8C3D857BD76758FD8D7D857B7060001D9
:101A700013671700D8D79843558F98C3B7170240FC
:101A8000984393166700E3DD06FED843719BD8C3E5
:101A9000D84313672700D8C3371702405C43A18B94
:101AA000F5DF17F3FFFF6700A3E493F7F507F145B0
:101AB000B387B702411106C605479385C726AA9783
:101AC00023AAC72623ACD72623AE07268346450084
:101AD000AA956394E60023A2C72897F0FFFFE7804A
:101AE000405DB24001454101828093F7F507F14521
:101AF000B387B702411106C605479385870CAA979D
:101B000023A8C70C23AAD70C23AC070C8346450097
:101B1000AA956394E60023A0C70E97F0FFFFE78025
:101B2000A04AB2400145410182804111939785014D
:101B300006C6E18763D5070293F5F507F147B3853C
:101B4000F5029385850CAA9585472381F50097F0CA
:101B5000FFFFE780C05EB240014541018280F1474E
:101B6000B385F5029385C526F9BF41119397850189
:101B700006C6E18763D4070293F5F507F147B385FD
:101B8000F5029385850CAA952381050097F0FFFF48
:101B9000E780805EB240014541018280F147B38514
:101BA000F5029385C526C5B717F3FFFF6700A33677
:101BB0000545828003254541834705002310F60033
:101BC000828003258541834725002310F60082800B
:101BD000832705428A05AE97884383470500231073
:101BE000F6008280411122C426C206C683C70500C2
:101BF0002A84AE848D8B8DCF05476385E70C032740
:101C0000C40D054561C783C7740083C66400A2077D
:101C1000D58FCDCF6371F70C8357C40C0145636733
:101C2000F70A3375F70255E98547A306F44279A808
:101C300083C7250083C535000947A205DD8D93D7ED
:101C4000850093F5F50F638CE704636BF702054796
:101C5000E397E7FA1306C50D97000000E780C0F58B
:101C60002328A40C83C7740003C76400A207D98F7C
:101C700013070004E395E7F8A147232EF40C41B7BE
:101C80000D476387E7023D47E39BE7F68327C5419E
:101C900003C727002328F50C231EE50C8DB7130678
:101CA000C50D97000000E78000F22328A40C81BF37
:101CB0009547E3E6B7F41306C50D97000000E780EB
:101CC00060F1E5B783270543DC478297B2402244A1
:101CD000924441018280232EF40C0145C5BF41117D
:101CE0004AC006C622C426C283C725003709002081
:101CF000130909512300F900854663EDF6000347F7
:101D0000650C89442A841377F70F630797000D4603
:101D10006309C702854439A8814489CF83270543D5
:101D20008545DC438297834709002302F40C8D47E5
:101D30002303F40CB2402244268502499244410117
:101D4000828091EF8327054381459C478297834793
:101D500009002303940C81442302F40CE1BF834760
:101D6000450C8144E388D7FC8327054385459C4780
:101D70008297834509008327044322852302B40CFC
:101D8000DC43829745BF83C6550003C7450003C6A1
:101D90000500A206D98E0D8A8545AA8713F7F60F8E
:101DA0006303B60411C689456302B6060545828001
:101DB0000347650C89466388E6000347650C8D463A
:101DC00005456394E60483C6274103C7074189C6D6
:101DD000B336E00093E6260037070020130747518B
:101DE0002300D70029A88346650C0D460545631ED0
:101DF000D600636CE500370700201307475123A87E
:101E0000E70C094723AEE70C014582800346650CC9
:101E10008D450545E39BC5FEE206E18663DB0600D2
:101E2000F1461377F7073307D7023E978346A70C8F
:101E300065B7F1463307D7023E978346E72669BF69
:101E40000347650C8946AA871377F70F6307D70006
:101E50008D466301D702054582800347450C054541
:101E600065FF1387470C23A8E70C054723AEE70C53
:101E7000014582800347450C79DFE5B78347650C50
:101E80000D476311F70203C74500854763EAE70082
:101E900003270543232EF50C814705072328E50C6E
:101EA0003E8582808547EDBF8347650C0D476310F3
:101EB000F70203C74500854763E9E7008327054329
:101EC00003C72500A380E70081473E8582808547C0
:101ED000EDBF03C7550083C645002207558F01CBD0
:101EE000054582800545B24022444101828003C7F6
:101EF000750083C665002207558F7DF3411122C40A
:101F000006C683C525000347650C8D4693F5F50786
:101F1000A302B50C2A84E387E6FC97000000E78063
:101F2000E0C88347540C91C789472303F40C01454B
:101F30005DBF8547DDBF411106C622C483C70500CA
:101F40002A878D8B8DCF894605446391D7068347B9
:101F5000650C0D470544631BF70483C7350003C7B1
:101F600025000144A207D98FB1E383C5450093F74B
:101F7000F5078DCF97000000E78060BB05A8834779
:101F8000650C89466388F6008347650C8D460544D9
:101F9000639EF60083C7350083C625000144A2076F
:101FA000D58F85466394D7002309F7402285B24038
:101FB000224441018280411126C206C622C44AC081
:101FC00003C70500AA840D8B29C7894605496319F3
:101FD000D7060347650C8D4605496393E60603C79C
:101FE000350083C6250001492207558F31EB03C711
:101FF00045009376F707A9C62E84BA85970000009E
:10200000E780E0B683A70443A2852685DC47829754
:1020100005A80347650C89466388E6000347650CFD
:102020008D460549639EE60003C7350083C625003B
:1020300005492207558F631527012389044001496B
:10204000B24022444A8592440249410182800145BE
:1020500082800145828083C7150013972700B70748
:1020600000089387C735BA9703A307000283834606
:10207000650C0D4685476310D60283C6450085472B
:1020800063EBD70083270543411106C6DC478297DF
:10209000B240410182803E858280014582804111AB
:1020A0009305000806C622C42A8497000000E78032
:1020B00000A82285814597000000E78040A722857F
:1020C0002244B240410117F3FFFF670043148356D7
:1020D000C50D0326050D4111814522C406C62A847B
:1020E00097000000E780A0A00357C40C8326C40D0E
:1020F00089476373D70085472306F442B2402244E0
:102100000145410182808356052803264527411158
:10211000814522C406C62A8497000000E7802099E2
:10212000035704278326042891476373D7008D47FC
:102130002306F442B240224401454101828041110C
:1021400006C622C495472306F542814601468145CD
:102150002A8497000000E7808099228597F0FFFF8E
:10216000E780E00AB24022440145410182804111EA
:1021700006C622C499472306F54281460146814599
:102180002A8497000000E7808092228597F0FFFF65
:10219000E780E007B2402244014541018280832765
:1021A000454203278542011122CC3EC43AC606CEE1
:1021B00093F70706130700022A84638AE7021307CE
:1021C0000004638CE702B9EF2C0097000000E78061
:1021D000C0E829E98357E1009DE7228597000000C8
:1021E000E78020F6F24062440145056182802C00C0
:1021F00097000000E780E0E7E9BF2C0097000000AF
:10220000E780E0E9F9B783078100228563D70700FB
:1022100097000000E780E0EBF1B797000000E7804F
:10222000C0EEC9B72C00228597000000E78060E768
:1022300055BF797106D622D40018232EA4FCAE8790
:10224000A30DF4FC8347B4FDC1EB8327C4FD938742
:10225000C7262326F4FE8327C4FD83C7C7420D4744
:102260006386E70011476386E7024DA08327C4FE1B
:10227000DC4B0327C4FE035747003387E74083271F
:10228000C4FED8CB0325C4FD97000000E780E0E73B
:10229000B5A88327C4FD83C7670C13F7F70F8D47D5
:1022A0006311F7028327C4FD83A70743DC4B91CB5F
:1022B0008327C4FD83A70743DC4B81450325C4FD69
:1022C00082978327C4FE23AA07000325C4FD970035
:1022D0000000E78000E71DA88327C4FD83A707430C
:1022E000DC4B8DC78327C4FD83C7670C13F7F70F3B
:1022F0008D47631DF7008327C4FD83A70743D84B91
:102300008347B4FDBE850325C4FD029781473E8502
:10231000B250225445618280797106D622D40018C9
:10232000232EA4FCAE87A30DF4FC8347B4FDDDEBA4
:102330008327C4FD9387870C2326F4FE8327C4FDDF
:1023400083C7C74205476386E70009476386E702FC
:10235000E1A08327C4FEDC4B0327C4FE03574700DC
:102360003387E7408327C4FED8CB0325C4FD9700FD
:102370000000E78000D64DA08327C4FD83C7D74265
:1023800099CF8146014681450325C4FD97F0FFFFA3
:10239000E780E0758327C4FDA3860742B5A883279D
:1023A000C4FD83C7670C13F7F70F8D476311F7025E
:1023B0008327C4FD83A707439C4B91CB8327C4FD90
:1023C00083A707439C4B81450325C4FD8297832740
:1023D000C4FE23AA07000325C4FD97000000E78080
:1023E00040D91DA88327C4FD83C7670C13F7F70FD7
:1023F0008D476313F7028327C4FD83A707439C4BD4
:1024000081CF8327C4FD83A70743984B8347B4FD3F
:10241000BE850325C4FD029781473E85B2502254F4
:102420004561828018419307401F6316F7024111EE
:1024300022C406C6232005002E848C410145970046
:102440000000E780C0441C40B24093B717001CC096
:102450002244410182808280B9476303F50263C947
:10246000A700A9476355F5009C413E9588C182802D
:10247000BD47E31BF5FE1C42938707021CC2828006
:102480002320060023A0050082809C41411126C222
:1024900006C622C4AE84635EF00097000000E780A9
:1024A00040059C40FD179CC0B2402244924441012B
:1024B00082801C4232846354F00297000000E7805F
:1024C00080051C400545FD171CC097000000E780F3
:1024D00020091C40F1FB9307401F9CC0F1B71C4131
:1024E000E1D7FD171CC1930700401CC275BF411105
:1024F0009305F00F194506C697000000E7802039C4
:10250000B2409305F00F1D4541011703000067001D
:10251000033841118145194506C697000000E78040
:102520000037B24081451D45410117030000670097
:10253000033641111305206006C697E0FFFFE780D0
:10254000A026B24037150140BD460D46C1451305D2
:102550000580410117E3FFFF67008319411122C481
:1025600006C63704002026C28347E44F1304E44F15
:1025700025C913D617009E075D8EB7140140137648
:10258000F60F2300C40013850480058A854597E073
:10259000FFFFE7802020034604001385048089455F
:1025A0001982058A97E0FFFFE780C01E03460400FA
:1025B0001385048091451182058A97E0FFFFE7802B
:1025C000601D034604002244B240138504809244F7
:1025D0000982058AA145410117E3FFFF6700831BBC
:1025E000139617009D8349BF000000000000000003
:1025F00000000000000000000000000000000000DB
:102600005D7106C012C216C41AC61EC82ACA2ECCD4
:1026100032CE36D03AD23ED442D646D872DA76DCC2
:102620007ADEFEC0F322103496C0F322003096C248
:10263000F322407C96C4732520348A8597E0FFFFFF
:10264000E780804A8642739012349642739002303B
:10265000A6427390427C82401242A2423243C2435D
:102660005245E245724682561257A2573258C25816
:10267000525EE25E725F864F61617300203000003F
:10268000000000005D7106C012C216C41AC61EC842
:102690002ACA2ECC32CE36D03AD23ED442D646D8F2
:1026A00072DA76DC7ADEFEC073D0E87E7350F97E93
:1026B00073D0B97EF390D07E73700430B6427390BD
:1026C000427CA64273901234964273902234824028
:1026D0001242A2423243C2435245E24572468256FA
:1026E0001257A2573258C258525EE25E725F864F4E
:1026F000616173002030AA82B68E214363C46E00EC
:102700009102E11E8A0E3D433313D3011343F3FFBD
:10271000AE83B3E3C300B393D30103AE0200337EB1
:102720006E00336E7E0023A0C2018280F18D2D8E5B
:102730004206D18D0CC982804CC982804CC58280F2
:102740000C458280B712024003A3C2013363A30089
:1027500023AE62008280B712024003A3820133637A
:10276000A30023AC62008280711106C0414597002E
:102770000000E78060FDB71200401303B00623A4F9
:1027800062021303703E23A6620223A802000543DF
:1027900023A06200824011018280B712004003A58D
:1027A000020119C123A802008280711106C02145CF
:1027B00097000000E78060FA37150140130505C057
:1027C00081450D4681460D4797000000E780E0F205
:1027D0008506E39BE6FE82401101828097E2FF17A7
:1027E0009382C2C9038502008280711106C0371529
:1027F0000140130505C097E2FF17938222C8838525
:102800000200FD1563D305009D452380B2001D46DF
:1028100097000000E780C0F10385020082401101AB
:102820008280711106C0214597000000E780E0F228
:1028300037150140130505C081450D46A1464147A6
:1028400097000000E78060EB8506E39BE6FE824090
:1028500011018280711106C097E2FF17938242C274
:1028600083A20200AA9237150140130505C083C553
:102870000200A20537060100130606F097000000CB
:10288000E78000EB82401101828097E2FF1793827C
:1028900022BF83A20200AA922380B200828071111B
:1028A00006C0114597000000E78020EB3715014076
:1028B0001305058081451146954625479700000080
:1028C000E780A0E38506E39BE6FE8240110182805B
:1028D000711106C07D5E97EEFF17938E3EBB03A37A
:1028E0000E009303F3FF23A07E006397030423A04D
:1028F0006E00371501401305058097000000E78042
:1029000060E49581BD898DC985813335B00033037D
:10291000A00085813335B0002A9385813335B0001E
:102920002A9397000000E780A0EB0A05336EA3000E
:102930001303002023A06E00728582401101828063
:1029400097E2FF179382D2B423900200828097E22D
:10295000FF179382F2B303D30200A5430503137E4E
:10296000F30063D8C3031903135E4300137EFE0014
:1029700063D1C30313030306135E8300137EFE00BB
:1029800063D9C30113030360135EC30063D3C301A0
:10299000014323906200828097E2FF17938252AF37
:1029A00003D50200828097E2FF17938292AE03A3C1
:1029B00002007D1323A06200635003021303F0089A
:1029C00023A0620097E2FF17938282AB03A3020069
:1029D0001343130023A062008280370810007D1883
:1029E000B378B8008E089357D501011113D745016C
:1029F0003378D800B3E7170193D846010E0826CAEA
:102A00004AC89374F77F93F8F87F1357D60106CE20
:102A100022CC4EC613D9F501FD82336707010E059E
:102A20000E06338814416316D9226351000F639850
:102A30000802B366C700638B06569305F8FF89E961
:102A40002A963335A600BA97AA9732858544B1A84D
:102A50009306F07F631DD8009304F07F79AA930654
:102A6000F07F638CD418B7068000558FC28593061B
:102A7000800363C9B608FD4663C0B60613080002AA
:102A80003308B840B3160701B358B6003316060131
:102A9000B3E616013336C000558E3357B7002A9679
:102AA0003E97B337A600BA973285139787006356CF
:102AB000071485041307F07F6389E448B70680FF95
:102AC000FD16FD8E9355150005899397F6014D8DE2
:102AD0005D8D93D7160015A2938605FE930800021C
:102AE000B356D70001486388150113080004B305E5
:102AF000B8403318B7003366C8003336C000558E6F
:102B0000014771BF598E3336C000DDBF630B080A21
:102B1000B38598408DE4B3E6A700638F06409386A3
:102B2000F5FF99E63295BA973336C500B29739BFAB
:102B30001308F07F639D0501BA87328531BF930684
:102B4000F07FE38BD8FEB7068000D58FAE86930565
:102B5000800363C4D506FD4563CBD502130800028C
:102B60003308D8403353D500B39507013315050119
:102B7000B3E565003335A0004D8DB3D6D70032954F
:102B8000B387E6003336C500B297C68439BF938554
:102B900006FE13030002B3D5B70001486388660040
:102BA00013080004B306D8403398D7003365A80053
:102BB0003335A0004D8D8146D9B75D8D3335A000EA
:102BC000DDBF9386140093F5E67FBDE1B3E6A70071
:102BD000A9E463870636B366C70085C22A96BA970A
:102BE0003335A600AA9713978700328563570700ED
:102BF000370780FF7D17F98F8544137775006308C9
:102C000007341377F50091466303D73493064500E4
:102C100033B5A600AA9736851DAE99DE598EE30D11
:102C200006E20149B707400001459304F07F05A67D
:102C30009305F07F6389B6302A963E97B337A60096
:102C40003E971315F7010582518D93571700B684EF
:102C50006DB76356000D63910808B366C7006387BC
:102C600006349305F8FF91E93306C5403335C500B6
:102C7000998F898F32858544B1A09306F07FE30D4B
:102C8000D8DC9306800363C8B608FD4663CFB6045C
:102C9000130800023308B840B3160701B358B60052
:102CA00033160601B3E616013336C000558E33578E
:102CB000B7003306C5403387E740B337C500B307D5
:102CC000F740328513978700E35907F237048000F5
:102CD0007D147D8CAA8975A29306F07FE38FD4F0D2
:102CE000B7068000558FC28569BF938605FE93089D
:102CF0000002B356D7000148638815011308000489
:102D0000B305B8403318B7003366C8003336C00087
:102D1000558E014779BF598E3336C000DDBF63043D
:102D2000080C3388984095E8B3E5A700638205282E
:102D30009305F8FF91E93305A640B307F740333612
:102D4000A600918F368905BF1303F07F631F6800CB
:102D5000BA8732859304F07F7DA09305F07FE389E5
:102D6000B8FEB7058000CD8FC28513088003634885
:102D7000B8067D48634EB802130300023303B34024
:102D8000335EB50033986700331565003368C801BA
:102D90003335A0003365A800B3D5B7003305A6408E
:102DA000B307B7403336A600918FC684368919BF62
:102DB000138805FE130E000233D807010143638810
:102DC000C50113030004B305B3403393B700336563
:102DD000A3003335A0003365A8008145C1B75D8DE0
:102DE0003335A000DDBF9385140093F5E57FB5E58D
:102DF00033E8A700B365C700B1E463180800638D2A
:102E0000051ABA8732853689CDBBE38805DE3308DB
:102E1000C540B385E740B3380501B3851541139428
:102E20008500635A04003305A640B307F7403336E4
:102E3000A600918FC9BF3365B80063030518AE873C
:102E4000428565BB63180800638E0516BA87328514
:102E5000368919B1E38205C0E9B3B309C540B3357A
:102E600035013384E7400D8C9315840063D9050642
:102E7000B309A640B307F740333636013384C74061
:102E8000368925C4228597100000E780A0871307A4
:102E900085FFFD4763C3E70693070002998F33144C
:102EA000E400B3D7F9005D8C3395E90063409708DF
:102EB000058F93071700FD4663C7F604130700024A
:102EC0001D8F3356F500B316E4003315E500D18E9F
:102ED0003335A000558DB357F400814439BB33E539
:102EE000890045F181478144D1A84E8597100000A3
:102EF000E78040811305050259BF130485FD339413
:102F00008900014565B70517130600023357E40031
:102F100081466387C700930600049D8EB316D400D4
:102F2000558D3335A000598D814745BFB70780FFC8
:102F3000FD17998CE18FD1B1BA873285AE8475B90E
:102F4000BA8732855DB99304F07F814701451397B5
:102F50008700635B070085041307F07F6389E4063D
:102F6000370780FF7D17F98F1397D7010D81598D92
:102F70001307F07F8D836399E4005D8D814709C558
:102F8000B70708000145014913F7F47FB20752075C
:102F9000F2406244B1839315F901D98F33E7B7004A
:102FA000D2444249B249BA8505618280C284B1B136
:102FB000BA873285C28481BD81470145014941BF3D
:102FC0008147EDBF01450149B7074000B9B98147C5
:102FD000014559BF79714ECE93D9450122D426D2ED
:102FE00052CC56CA5AC89394C50006D64AD05EC67B
:102FF00093F9F97F2A84328BB68AB18013DAF5010E
:10300000638109089307F07F6389F90C9357D50111
:103010008E04DD8CB7078000DD8C13193500938991
:1030200019C0814B13D54A011394CA001375F57F5B
:10303000318093DAFA0161C59307F07F630DF510D3
:103040009357DB010E045D8CB70780005D8C130580
:1030500015C093173B00014793962B00D98E4E95D0
:10306000FD16B94533465A011308150063E6D5101D
:1030700097D5FFFF938505378A06AE969442AE96A4
:10308000828633E9A400630309069DC8268597005C
:103090000000E7802067130755FFF14763C9E70287
:1030A000F547130985FF998FB3942401B357F400B2
:1030B000DD8C331924019309D0C0B389A94095B799
:1030C00097000000E780006413050502E9B7930448
:1030D00085FDB31494000149F9BF33E9A400630BE3
:1030E00009002A899309F07F8D4B2DBF81448149C6
:1030F000854B0DBF81449309F07F894B25B7B3679A
:103100006401B5C31DC8228597000000E780805F79
:10311000930655FFF14763CAD7027547930785FFAA
:10312000158F3314F4003357EB00598CB317FB00A1
:103130001307D0C03305A74039BF5A859700000058
:10314000E780405C13050502E1B7130485FD3314E5
:103150008B008147F1BFB367640191CBDA87130518
:10316000F07F0D47D5BD014401450547F5B5014444
:103170001305F07F0947CDB5416F930EFFFF13573D
:10318000090193D807013379D901B3F7D701B38582
:103190002803B3862703B30FF7023383F50193D5D2
:1031A00006019A95330E170363F3F5017A9E93D3C4
:1031B0000501B3F5D501B3F6D601135F0401B3726F
:1031C000D401C205B695B30E5702B3862203330964
:1031D0002F033303D90113D906011A993307E703E3
:1031E0006374D90141631A97935E0901C169BA9E5C
:1031F0001387F9FF3379E900F98E13D404014209EA
:10320000F98C369933879702CA933303F402B38655
:103210009802B3878802B388660093560701C69662
:1032200063F36600CE9793D80601C169B38FF800A7
:103230009387F9FFFD8E7D8FB3889202C206BA96FE
:10324000B3075402B3049F0233038F02BE9413D416
:103250000801A29463F3F4004E93C167FD1733F79E
:10326000F400B3F8F80042071E9E469733392E014A
:10327000769733042701369EB336DE00B308F40197
:10328000338FD8003337D70133342401598CC180B0
:10329000B3B8F801B336DF002694B3E6D80036940D
:1032A0001A9493577F0126045D8C93179E00CD8F4F
:1032B000B337F000135E7E0113179F00B3E7C70119
:1032C000D98F131774006358070A13D71700858B1B
:1032D000D98F1317F401D98F05809306F83F635EE9
:1032E000D00813F7770001CF13F7F7009145630873
:1032F000B70013874700B337F7003E94BA87131718
:10330000740063580700370700FF7D17798C930618
:1033100008401307E07F634CD70E13D7370093178D
:10332000D401D98F0D80320413F7F67F5207318014
:10333000598C7E063367C400B2502254925402590D
:10334000F249624AD24A424BB24B3E85BA85456148
:10335000828052862684CA875E8789466309D70A97
:103360008D46630FD7088546E319D7F60144814798
:103370009DA05686DDB72A888DB78545958D1307A4
:103380008003E345B7FE7D476349B7041308E8416E
:1033900033170401B3D6B700B3970701558FB3377E
:1033A000F000D98F3354B40013F7770001CF13F72F
:1033B000F70091466308D70013874700B337F7003B
:1033C0003E94BA8713178400634807041317D40187
:1033D0008D83D98F0D808146B9B70557158F130599
:1033E00000023357E40081466386A5001308E843D2
:1033F000B3160401D58FB337F000D98F01446DB7F0
:103400003704080081479306F07F014629BF014435
:1034100081479306F07F01BF01448147854621B76C
:1034200037068000135775019307F6FF1377F70FE0
:103430009305E007E98F9356F50163F1E5049305E1
:10344000D00963F8E500370500801345F5FF369590
:10345000828033E5C7009307500963DAE70013075A
:10346000A7F63315E50081CE3305A040828093078F
:1034700060093387E7403355E500F5B701458280A1
:10348000411106C622C426C2AA8745C91357F54171
:103490003344A700198C9354F5012285970000004E
:1034A000E78040269307E009898F13076009634688
:1034B000F70221476355A70061153314A4002604C1
:1034C00093F7F70FDE0725801395F4015D8C418D8E
:1034D000B240224492444101828013079009635D07
:1034E000F7001547098F9306B5013357E4003314ED
:1034F000D40033348000598C15476356A700130756
:10350000B5FF3314E400370700FC7D179376740091
:10351000618F91C63D8891466303D40011079316CD
:10352000570063D90600B70700FCFD177D8F93078E
:10353000F009898F1354370059B78144014441B7CA
:1035400093577501411193F7F70F22C426C2131444
:1035500095009354F5011385170006C61375E50F02
:10356000258015C513850738935734007604B207B4
:103570001375F57F5205B183C98FB240228522446D
:10358000FE0433E79700BA859244410182808DEFB3
:1035900079DC228597000000E780C016A94763CF39
:1035A000A700AD47898F13075501B357F4003314B3
:1035B000E400130790383305A74055BF930755FF24
:1035C000B317F4000144F5B7814719C49357340089
:1035D000370708007604D98F1305F07F49BF13968B
:1035E000C500318213D84501931736001378F87F50
:1035F0001356D5015D8E9307180093F7E77FFD8181
:1036000013173500D1C3930608C89307E00F63CBA7
:10361000D7086342D006A55763C9F60CB7078000E8
:1036200079455D8E158DFD4763C3A702130828C831
:10363000B3170701B337F000331606013355A7005F
:10364000D18FC98F814613F7770025C34DA0F95755
:10365000B386D74093070002B356D600814863066D
:10366000F500130828CAB3180601B3E7E800B3371A
:10367000F000D58FC1BF1A053335A0000E06935751
:10368000D701498ED18FC1B7B367E6006315080033
:10369000B337F00045BF9306F00F81CB0E06B70796
:1036A0000002CDB781479306F00F13975700635B75
:1036B000070085061307F00F6382E604370700FC56
:1036C0007D17F98F1307F00F8D836396E60081C78E
:1036D000B70740008145A60793F6F60FDE06A583DF
:1036E000FE05D58F33E5B70082808547814613F705
:1036F000F7001146E30BC7FA910745BF8147D9B7D9
:10370000C1676376F5029307F00FB3B7A7008E0782
:10371000130700021D8FB357F50017D5FFFF1305E0
:1037200025D0AA9703C507003305A7408280370735
:103730000001C147E36EE5FCE147D9BFAA85814698
:10374000014601451703000067008315411122C49B
:1037500006C6970700009387671D2A8491C7814595
:1037600097000000E780801C970700009387472997
:1037700088431C5591C38297228597D0FFFFE7802D
:10378000C0234111970700009387C72722C417045D
:103790000000130424271D8C26C206C60984BE849B
:1037A00011E4B24022449244410182807D14931777
:1037B0002400A6979C438297E5B741119707000024
:1037C0009387472422C4170400001304A4231D8CEC
:1037D00026C24AC006C6098481443E896396840293
:1037E0009707000093870722170400001304842121
:1037F0001D8C098481443E89639F8400B240224429
:10380000924402494101828093972400CA979C43C5
:1038100085048297E1B793972400CA979C43850457
:103820008297D9BF2A8309CA8383050023007300C6
:103830007D16050385056DFA82802A8311C6230053
:10384000B3007D16050365FE828097D7FF17938727
:1038500067CBB2862E86AA858843170300006700CF
:103860008300411122C42A842E85B285368697D7DB
:10387000FF1723AD07F206C697E0FFFFE780400978
:10388000FD576319F50097D7FF17938727F29C43DD
:1038900091C31CC0B24022444101828097D7FF17D8
:1038A0009387C7C79C432A8E8DE717D7FF17130747
:1038B00027E797D7FF1723A3E7C617C5FFF7130519
:1038C0006574BA8719C51C4117D5FF17232EF5EC6F
:1038D000BA87D8437D487D556347E804630E0E02DE
:1038E00003A887086301080493182700C29823A03F
:1038F000C8000323081005463316E6003363C300EF
:103900002320681023A0D80889466317DE00832689
:103910004810558E2322C810930617000A07D4C3F7
:10392000BA978CC701458280797152CC56CA5AC861
:103930005EC606D622D426D24AD04ECE62C42A8B88
:103940002E8A97DAFF17938A6ABD854B03A40A0073
:1039500011C84440832984081389F4FF8A04A2947F
:10396000635E0900B250225492540259F249624AED
:10397000D24A424BB24B224C45618280630E0A0010
:10398000639509007D19F114E1BF93172900CE97C3
:1039900083A70708E39847FF5840DC407D1763186A
:1039A000270323222401F9DF032C44006388090044
:1039B00083A6091033972B01F98E89EE8297584020
:1039C00083A70A00E31487F9E30EF4FA41B723A2B0
:1039D0000400D1BF93162900CE968C4283A64910CD
:1039E000758F01E75A858297D9BF2E858297C1BF0F
:0439F00004030904BF
:0439F40000000300CC
:0439F80003020102C3
:0439FC00980400200B
:103A000009024300020100803209040000010202A1
:103A10000000052400100105240100010424020215
:103A200005240600010705820308000A09040100B5
:103A3000020A00000007050302400000070581029A
:103A40004000000000000000000000000000000036
:103A50000000000000000000000000000000000066
:103A60000000000000000000000000000000000056
:103A70000000000000000000000000000000000046
:103A80000000000000000000000000000000000036
:103E500000000000000000003803000800000020FF
:103E6000000000004C0300080000000000000000FB
:103E70000000000000000000070000008004002097
:103E8000AA55AA55AA55AA55AA00020000FFFF8FFD
:103E9000000000070000000000000000000000001B
:103EA0000000000000000000000000000000000012
:103EB0000000000000000000000000000000000002
:103EC00000000000000000000000000000000000F2
:103ED00000000000000000000000000000000000E2
:103EE00000000000000000000000000000000000D2
:103EF000000000000000000000F36F060C01F80055
:083F00009804002000000000FD
:040000050800015C92
:00000001FF
