:020000040800F2
:10000000B1AA010000000000000000000000000094
:1000100000000000000000000000000000000000E0
:1000200000000000000000000000000000000000D0
:1000300000000000000000000000000000000000C0
:1000400000000000000000000000000000000000B0
:1000500000000000000000000000000000000000A0
:100060000000000000000000000000000000000090
:100070000000000000000000000000000000000080
:100080000000000000000000000000000000000070
:100090000000000000000000000000000000000060
:1000A0000000000000000000000000000000000050
:1000B0000000000000000000000000000000000040
:1000C0000000000000000000000000000000000030
:1000D0000000000000000000000000000000000020
:1000E0000000000000000000000000000000000010
:1000F0000000000000000000000000000000000000
:1001000000000000000000000000000000000000EF
:1001100000000000000000000000000000000000DF
:1001200000000000000000000000000000000000CF
:1001300000000000000000000000000000000000BF
:1001400000000000000000000000000000000000AF
:100150000000000000000000000000007370043088
:10016000170500001305C5FF8545F605637BB5003F
:1001700089816378B500170500001305C5002E9529
:1001800002859302002073A0027D970200009382F3
:1001900062E773907230970200009382E27273906C
:1001A000C27E73E0C07E970200009382A2697390C2
:1001B0005230970100189381E16C178100181301E8
:1001C00061E417150000130525D4970500189385E1
:1001D00065E317060018130666EB63FAC500832271
:1001E000050023A0550011059105E3EAC5FE17059A
:1001F00000181305A5E9970500189385A5F2637704
:10020000B500232005001105E36DB5FE73F0023241
:1002100017150000130505A597100000E78020A022
:1002200097100000E78080A797000000E78040510A
:100230000145814597000000E780400E171300003C
:100240006700E39E01A073E00232828073F0023205
:0402500082800000A8
:100280000A50726F6772616D2068617320657869CA
:10029000746564207769746820636F64653A000050
:1002A000307800006E6D690A0000000074726170A1
:1002B0000A000000EC030008EC03000880030008BB
:1002C000EC0300088003000880030008F403000822
:1002D0008003000800040008010000000400000082
:1002E000070000000E0000000200000005000000F2
:1002F00008000000000000000300000006000000ED
:10030000090000000F0000000A0000000B000000C0
:100310000C0000000D0000001D71B7050008130659
:1003200000049385852D0A8586CEA2CCA6CACAC8AC
:10033000CEC6D2C4D6C2DAC0B709000897100000F2
:10034000E780609C97000000E7806042814497004E
:100350000000E780A065054997000000E78020695C
:10036000014497000000E7800070130A803E970068
:100370000000E7800077A14A9389492B130B404086
:1003800097000000E780A06565DD97000000E7802A
:10039000006A97000000E78020700504937714003E
:1003A00081EB99C40545FD1497000000E780C03E2D
:1003B000631B4401CA85014597000000E780207156
:1003C00013491900014497000000E780A074E34935
:1003D00005FA9C000A053E95032705FC9307F7FFE5
:1003E000E3E0FAFA8A07CE979C43828733076703D4
:1003F000BA9479B7054597000000E780E03949B71E
:100400000145D5BF93F7050193F8F50099C3B3E80B
:10041000C8008147054EBD4E130F8002930F800424
:1004200021433316FE00758E1DC2139727008322C9
:1004300005003398EE001348F8FF337858003397DF
:10044000E800336707016399E50550C918C18507BE
:10045000E39967FC054EBD4E130F8002930F800495
:1004600041433316FE00758E05C61397270001170A
:10047000832245003398EE001348F8FF3378580084
:100480003397E80033670701639CE50150C958C101
:100490008507E39867FC8280E39AF5FB10C97DB776
:1004A000E397F5FF10C9E5B719C20CC982804CC9A2
:1004B0008280B7170240135765003E971443854763
:1004C000B397A700D58F1CC38280B717024098430B
:1004D000B706FFE0B1061367170098C3D843758FBE
:1004E000D8C39843B706F7FEFD16758F98C3984397
:1004F000B706FCFFFD16758F98C3D843B70601DF1A
:10050000FD16758FD8C323A607029843B706F7EAEE
:10051000FD16758F98C33707FF0098C7944341674E
:10052000D98E94C39307F7FF3717024014431396ED
:10053000E60063440600FD17F5FBB7170240984339
:100540009316E70063C3060001A0D843B706C4DFD3
:10055000FD16D8C3D843D8C3D84313670740D8C3C0
:10056000D843758FD8C3D843B7062920558FD8C331
:10057000D857BD76758FD8D7D857C166938616F1F0
:10058000558FD8D79843B7060004558F98C3B7172F
:100590000240984393164700E3DD06FE9843B706F2
:1005A0000010558F98C3B717024098439316270041
:1005B000E3DD06FE9843B7060001558F98C3B717D1
:1005C0000240984393166700E3DD06FED843719B13
:1005D000D8C3D84313672700D8C3371702405C43FA
:1005E000A18BF5DF82807971B705000822D47D46A2
:1005F0002A84938505280A8506D697000000E7809F
:10060000807079468A85094597000000E78000716F
:10061000A285094597000000E780E001B7050008C2
:1006200005469385052B094597000000E780006F7C
:1006300001A079714ECEAE89B705000809469385B1
:10064000052A22D426D24AD052CC56CA06D62A89A6
:10065000714497000000E780606C3D4AA54AF15460
:10066000B3178A00B3F73701B3D7870093F7F70FB3
:1006700063ECFA029387070393F7F70F0546930598
:10068000F1004A857114A307F10097000000E7808C
:10069000E068E31794FCB250225492540259F24994
:1006A000624AD24A4561828093877703F1B7B707E0
:1006B00000D223800700A38507001205B71700D2D8
:1006C0003E9563E3A700828023A00700C107D5BF42
:1006D000F327503093F707FC93E7370073905730B8
:1006E0008280B7050008411115469385452A0545C6
:1006F00006C697000000E78060620545970000008D
:10070000E780A0EE41119347F5FF22C406C6139778
:1007100047012A8409E797000000E780C0FCB7057D
:10072000000815469385C52A054597000000E78017
:10073000E05E228597000000E78020EB411106C6AD
:1007400097000000E780A0D813057005970000000F
:10075000E78020F697000000E780C0F7B240410133
:1007600017030000670063AE82804111130520600B
:1007700006C697000000E78000D4B240371501405C
:10078000BD460D46C1451305058041011703000014
:10079000670083C7411122C406C63704002026C261
:1007A000834704081304040825C913D617009E07BD
:1007B0005D8EB71401401376F60F2300C400138535
:1007C0000480058A854597000000E78020CE034617
:1007D00004001385048089451982058A970000006A
:1007E000E780C0CC03460400138504809145118244
:1007F000058A97000000E78060CB0346040022448E
:10080000B2401385048092440982058AA1454101C2
:1008100017030000670083C9139617009D8349BF23
:1008200000000000000000000000000000000000C8
:1008300000000000000000000000000000000000B8
:100840005D7106C012C216C41AC61EC82ACA2ECCB2
:1008500032CE36D03AD23ED442D646D872DA76DCA0
:100860007ADEFEC0F322103496C0F322003096C226
:10087000F322407C96C4732520348A8597000000BB
:10088000E78080E88642739012349642739002307B
:10089000A6427390427C82401242A2423243C2433B
:1008A0005245E245724682561257A2573258C258F4
:1008B000525EE25E725F864F61617300203000001D
:1008C000000000005D7106C012C216C41AC61EC820
:1008D0002ACA2ECC32CE36D03AD23ED442D646D8D0
:1008E00072DA76DC7ADEFEC073D0E87E7350F97E71
:1008F00073D0B97EF390D07E73700430B64273909B
:10090000427CA64273901234964273902234824005
:100910001242A2423243C2435245E24572468256D7
:100920001257A2573258C258525EE25E725F864F2B
:10093000616173002030AA82B68E214363C46E00C9
:100940009102E11E8A0E3D433313D3011343F3FF9B
:10095000AE83B3E3C300B393D30103AE0200337E8F
:100960006E00336E7E0023A0C2018280F18D2D8E39
:100970004206D18D0CC982804CC982804CC58280D0
:100980000C458280B712024003A3C2013363A30067
:1009900023AE62008280B712024003A38201336358
:1009A000A30023AC62008280711106C0414597000C
:1009B0000000E78060FDB71200401303B00623A4D7
:1009C00062021303703E23A6620223A802000543BD
:1009D00023A06200824011018280B712004003A56B
:1009E000020119C123A802008280711106C02145AD
:1009F00097000000E78060FA37150140130505C035
:100A000081450D4681460D4797000000E780E0F2E2
:100A10008506E39BE6FE82401101828097F2FF1774
:100A20009382425E038502008280711106C03715F1
:100A30000140130505C097F2FF179382A25C8385DE
:100A40000200FD1563D305009D452380B2001D46BD
:100A500097000000E780C0F1038502008240110189
:100A60008280711106C0214597000000E780E0F206
:100A700037150140130505C081450D46A146414784
:100A800097000000E78060EB8506E39BE6FE82406E
:100A900011018280711106C097F2FF179382C2562E
:100AA00083A20200AA9237150140130505C083C531
:100AB0000200A20537060100130606F097000000A9
:100AC000E78000EB82401101828097F2FF1793824A
:100AD000A25383A20200AA922380B20082807111E5
:100AE00006C0114597000000E78020EB3715014054
:100AF000130505808145114695462547970000005E
:100B0000E780A0E38506E39BE6FE82401101828038
:100B1000711106C07D5E97FEFF17938EBE4F03A333
:100B20000E009303F3FF23A07E006397030423A02A
:100B30006E00371501401305058097000000E7801F
:100B400060E49581BD898DC985813335B00033035B
:100B5000A00085813335B0002A9385813335B000FC
:100B60002A9397000000E780A0EB0A05336EA300EC
:100B70001303002023A06E00728582401101828041
:100B800097F2FF179382524923900200828097F2D6
:100B9000FF179382724803D30200A5430503137E17
:100BA000F30063D8C3031903135E4300137EFE00F2
:100BB00063D1C30313030306135E8300137EFE0099
:100BC00063D9C30113030360135EC30063D3C3017E
:100BD000014323906200828097F2FF179382D243F1
:100BE00003D50200828097F2FF179382124303A37A
:100BF00002007D1323A06200635003021303F00878
:100C000023A0620097F2FF179382024003A3020021
:100C10001343130023A062008280AA858146014607
:100C200001451703000067008314411122C406C662
:100C3000970700009387671C2A8491C78145970016
:100C40000000E780801B970700009387A72B88434D
:100C50001C5591C38297228597000000E780E09899
:100C60004111970700009387272A22C41704000028
:100C7000130484291D8C26C206C60984BE8411E48F
:100C8000B24022449244410182807D149317240093
:100C9000A6979C438297E5B7411197070000938779
:100CA000A72622C417040000130404261D8C26C2A4
:100CB0004AC006C6098481443E8963968402970728
:100CC000000093876724170400001304E4231D8C9D
:100CD000098481443E89639F8400B2402244924447
:100CE00002494101828093972400CA979C4385045E
:100CF0008297E1B793972400CA979C438504829713
:100D0000D9BF2A8309CA83830500230073007D1697
:100D1000050385056DFA828097F7FF179387C7361D
:100D2000B2862E86AA8588431703000067008300D9
:100D3000411122C42A842E85B285368697F7FF1783
:100D400023AE073C06C697000000E7808017FD57DA
:100D50006319F50097F7FF179387473C9C4391C3AE
:100D60001CC0B24022444101828097F7FF1793874D
:100D7000E7319C432A8E8DE717F7FF17130747319A
:100D800097F7FF1723A4E73017F5FFF7130585271B
:100D9000BA8719C51C4117F5FF17232FF536BA87F7
:100DA000D8437D487D556347E804630E0E0203A8CF
:100DB00087086301080493182700C29823A0C8007D
:100DC0000323081005463316E6003363C3002320CF
:100DD000681023A0D80889466317DE0083264810D0
:100DE000558E2322C810930617000A07D4C3BA975A
:100DF0008CC701458280797152CC56CA5AC85EC6EA
:100E000006D622D426D24AD04ECE62C42A8B2E8A4F
:100E100097FAFF17938A8A27854B03A40A0011C803
:100E20004440832984081389F4FF8A04A294635EF2
:100E30000900B250225492540259F249624AD24AED
:100E4000424BB24B224C45618280630E0A0063958F
:100E500009007D19F114E1BF93172900CE9783A7EC
:100E60000708E39847FF5840DC407D1763182703C5
:100E700023222401F9DF032C44006388090083A6A0
:100E8000091033972B01F98E89EE8297584083A77A
:100E90000A00E31487F9E30EF4FA41B723A2040031
:100EA000D1BF93162900CE968C4283A64910758F28
:100EB00001E75A858297D9BF2E858297C1BF41111C
:100EC00006C622C481460147814793080004730087
:100ED00000002A84635A0500330480409700000014
:100EE000E780600100C17D542285B2402244410167
:0E0EF000828097F7FF17938727198843828027
:040F000020000020AD
:100F04000700000008000020AA55AA55AA55AA55B2
:100F1400AA00020000FFFF8F00000007000000008D
:100F240000000000000000000000000000000000BD
:100F340000000000000000000000000000000000AD
:100F4400000000000000000000000000000000009D
:100F5400000000000000000000000000000000008D
:100F6400000000000000000000000000000000007D
:100F7400000000000000000000000000000000006D
:080F8400F8000000200000202D
:040000050800015C92
:00000001FF
